A1801033              Prefeitura Municipal104Caixa Economica Fede2017112700279304FOLHA PAGAMENTO                                                      
E1                        1060001000007984  2017113000000000030029403Abelino Pinto de Oliveira                                                       2
E2                        1060037000017468  2017113000000000006643903Adaise Gomes da Silva                                                           2
E3                        1060013000615074  2017113000000000015860603Adalberto Mendes Cabral                                                         2
E1131                     1060037000036543  2017113000000000004296203Adalgisa Cabral                                                                 2
E1173                     1060037000712530  2017113000000000017086103Adalgisa Eleutério da Silva Rezende                                             2
E755                      1060023000050767  2017113000000000010917403Adalton Aparecido Gomes                                                         2
E5                        1060001000112036  2017113000000000017807203Aderson Correia da Costa                                                        2
E6                        1060037000028974  2017113000000000011149803Adriana Aparecida de Araújo                                                     2
E1111                     1060037000034974  2017113000000000009425503Adriana Aparecida Ferreira Santos                                               2
E7                        1060037000028982  2017113000000000014027403Adriana Aparecida Nunes Pereira Máximo                                          2
E8                        1060037000028990  2017113000000000023368603Adriana Aparecida Soares Gontijo                                                2
E9                        1060037000076308  2017113000000000010857103Adriana Araújo Ribeiro Campos                                                   2
E10                       1060037000017484  2017113000000000016197703Adriana Carla da Silva                                                          2
E11                       1060037000713308  2017113000000000018177503Adriana Carla da Silva II                                                       2
E12                       1060037000054681  2017113000000000015101003Adriana Janaina Silva                                                           2
E807                      1060001000264642  2017113000000000015072403Adriana Libéria dos Santos                                                      2
E806                      1060013000460259  2017113000000000017515503Adriana Nasário da Silva Lopes                                                  2
E917                      1060013000038042  2017113000000000015479803Adriana Rodrigues Santos e Silva                                                2
E843                      1060013000724868  2017113000000000024227903Adrielle Aparecida da Silva                                                     2
E954                      1060001000106737  2017113000000000006313703Agueda Cardoso de Mesquita                                                      2
E1028                     1060037000026513  2017113000000000012931703Alaise Mendes Cabral                                                            2
E14                       1060037000029016  2017113000000000025537803Alcina Ferreira Porto Alvarenga                                                 2
E15                       1060037000029024  2017113000000000008507803Alcione Aparecida dos Santos Pinto                                              2
E1164                     1060037000029032  2017113000000000015650303Alcione Cibele Santos Vilaça                                                    2
E16                       1060037000029032  2017113000000000024765703Alcione Cibele Santos Vilaça                                                    2
E17                       1060037000029040  2017113000000000015711103Alessandra Fontes Cardoso Scomparin                                             2
E1243                     1060001000206855  2017113000000000021248803Alessandra Perpetua Pimentel Gontijo                                            2
E18                       1060037000064806  2017113000000000016598203Alexandra Moreira Barbosa                                                       2
E19                       1060013000705413  2017113000000000012894303Alexandre Araújo Correia                                                        2
E785                      1060013000029590  2017113000000000018221603Alexsandra Marília dos Santos Araújo                                            2
E20                       1060001000082013  2017113000000000039737903Alexsandra Souza Rabelo                                                         2
E1247                     1060037000046190  2017113000000000021732203Aline Cançado Gontijo Pessoa                                                    2
E22                       1060013000640214  2017113000000000014209003Aline Cintia Muniz                                                              2
E23                       1060037000029059  2017113000000000029376803Aline Dias dos Santos Rosa G Soares                                             2
E1236                     1060037000714061  2017113000000000016201603Aline Leila dos Santos                                                          2
E24                       1060001000103711  2017113000000000028185703Aline Luisa Ferreira Souza                                                      2
E962                      1060037000049890  2017113000000000009814703Aline Maria da Silva                                                            2
E728                      1060013000677037  2017113000000000032064203Aliny Diana da Silva                                                            2
E25                       1060001000204879  2017113000000000014305203Alletheia dos Santos Jaco                                                       2
E26                       1060037000029067  2017113000000000007855903Allyn Cardoso Habara                                                            2
E27                       1060037000029075  2017113000000000011638003Alminda Helena Pereira                                                          2
E28                       1060013000423906  2017113000000000015024403Alzira Adriana dos Santos                                                       2
E29                       1060037000031819  2017113000000000012817903Alzira Cleide Crisostomo Soares                                                 2
E30                       1060037000017557  2017113000000000020808303Amarildes Aparecida da Silva                                                    2
E803                      1060013000511880  2017113000000000015042503América Aparecida da Cunha Cardoso                                              2
E31                       1060001000107822  2017113000000000009390903Amirtes Maria Couto Lima                                                        2
E32                       1060037000017581  2017113000000000007874003Ana Alessandra Soares Mascarenhas                                               2
E35                       1060037000029091  2017113000000000019325403Ana Célia Ferreira Silva                                                        2
E34                       1060001000205000  2017113000000000012717603Ana Cláudia dos Santos Silva                                                    2
E33                       1060037000029105  2017113000000000009250303Ana Claudina dos Santos Silva                                                   2
E36                       1060013000753795  2017113000000000013087803Ana Flávia Oliveira Silva                                                       2
E916                      1060037000055130  2017113000000000009645603Analine Rodrigues dos Santos Costa                                              2
E1172                     1060999000000099  2017113000000000017086103Ana Lúcia de Oliveira Costa                                                     2
E37                       1060037000029113  2017113000000000006921603Ana Lúcia Tavares Costa                                                         2
E38                       1060037000017620  2017113000000000014374403Ana Maria Pinto de Castro                                                       2
E39                       1060037000070539  2017113000000000013400703Ana Paula Carolina Silva                                                        2
E1064                     1060037000713057  2017113000000000012375103Ana Paula Cunha Souza                                                           2
E40                       1060023000051135  2017113000000000014986103Ana Paula de Oliveira Santos                                                    2
E912                      1060023000000468  2017113000000000001097503Ana Paula Drumond Rodrigues                                                     2
E921                      1060013000613713  2017113000000000015679003Ana Paula Falcao da Silva Correia                                               2
E919                      1060037000060720  2017113000000000015386403Ana Paula Saldanha Mendonça                                                     2
E41                       1060037000029121  2017113000000000017737803Ana Paula Soares Campos e Silva                                                 2
E1170                     1060999000000099  2017113000000000014896003Ana Paula Soares Ferreira Martins                                               2
E751                      1060037000070059  2017113000000000009504003Ana Paula Trindade de Souza                                                     2
E734                      1060037000038872  2017113000000000009504003Ana Paula Xavier David                                                          2
E1130                     1060037000066132  2017113000000000017647403Ana Rita Ferreira                                                               2
E918                      1060037000043876  2017113000000000015679003Ana Zélia dos Santos Francelino                                                 2
E1086                     1060037000055513  2017113000000000016798903Andrea Cristina de Sousa Barbosa                                                2
E1244                     1060013000702899  2017113000000000023182603Andréa Hélida dos Santos Sousa                                                  2
E923                      1060037000056838  2017113000000000009504003Andreia Aparecida Mendes Souza Barbosa                                          2
E859                      1060013000438857  2017113000000000015391903Andreia Aparecida Pimentel Machado                                              2
E45                       1060001000107490  2017113000000000061573803Andreia Luciene Silva Araújo                                                    2
E46                       1060013000734162  2017113000000000015682103Andreia Luiza da Costa                                                          2
E47                       1060023000036314  2017113000000000020540803Andreia Maria Costa Gotelip                                                     2
E42                       1060037000017662  2017113000000000008364403André Libério da Silva                                                          2
E43                       1060001000248787  2017113000000000018270503Andre Luis Reboucas Guimaraes                                                   2
E44                       1060001000006465  2017113000000000041536803Andre Rodrigues dos Santos                                                      2
E48                       1060037000029130  2017113000000000008518503Angela Aparecida da Silva                                                       2
E49                       1060037000029148  2017113000000000024476703Angelina Letícia Pinto Gontijo                                                  2
E50                       1060037000054940  2017113000000000015963303Angelita Carvalho dos Santos                                                    2
E51                       1060001000104025  2017113000000000019893903Angelita Cristina Gomes Campos                                                  2
E52                       1060037000064555  2017113000000000015139303Anna Luisa Nascimento Campos                                                    2
E782                      1060001000125057  2017113000000000009504003Antônia Cláudia dos Santos                                                      2
E53                       1060037000026688  2017113000000000047777003Antônio Alvino da Silva                                                         2
E54                       1060037000035059  2017113000000000010079003Antônio Aparecida Ribeiro                                                       2
E55                       1060037000026696  2017113000000000022471103Antônio Carlos da Silva                                                         2
E56                       1060037000026777  2017113000000000015632703Antônio Zeferino dos Santos                                                     2
E57                       1060037000026785  2017113000000000009922603Aparecida Antônia de Assis                                                      2
E735                      1060023000024316  2017113000000000009193303Aparecida de Lourdes Gregório                                                   2
E750                      1060001000081920  2017113000000000015679003Aparecida de Oliveira Resende Andrade                                           2
E59                       1060037000029164  2017113000000000023771203Aparecida Maria da Silva                                                        2
E60                       1060037000043094  2017113000000000018145703Arilson Pontes Guimaraes                                                        2
E61                       1060037000026831  2017113000000000067952203Arlei José da Cunha                                                             2
E62                       1060037000029180  2017113000000000028883003Arlete Aparecida de A Ribeiro                                                   2
E1047                     1060037000713162  2017113000000000015239903Bárbara Silva Freitas                                                           2
E63                       1060001000114829  2017113000000000034679703Beliane Xavier dos Santos                                                       2
E64                       1060037000026858  2017113000000000027694903Benicio Antônio Alves                                                           2
E65                       1060001000062942  2017113000000000061272603Bertolino da Costa Neto                                                         2
E66                       1060037000029202  2017113000000000002503003Brasilina de Fátima Santos                                                      2
E67                       1060037000065420  2017113000000000016194303Breno Tupy Caldas Araújo                                                        2
E839                      1060001000125391  2017113000000000008593703Brisa Maria Ferreira                                                            2
E68                       1060001000110688  2017113000000000033793603Bruna Kelly Camilo Araújo                                                       2
E69                       1060037000031592  2017113000000000017215903Bruna Raquel Soares Santos                                                      2
E70                       1060037000017751  2017113000000000012616703Bruno Donizete Costa                                                            2
E71                       1060037000030723  2017113000000000021851203Bruno Eduardo Aparecido Mota                                                    2
E72                       1060037000029210  2017113000000000012616703Bruno Pinto Filho                                                               2
E73                       1060037000017786  2017113000000000017711703Bruno Silva de Oliveira                                                         2
E1155                     1060037000055068  2017113000000000015650303Camila Alves Campos                                                             2
E74                       1060037000029237  2017113000000000019758803Camila Aparecida da Silva Marques                                               2
E75                       1060037000026866  2017113000000000010712003Camila Castro Nunes                                                             2
E1077                     1060037000712972  2017113000000000008616903Camila de Faria Toledo Monteiro                                                 2
E791                      1060013000735916  2017113000000000009814703Carina Paula da Silva Faria                                                     2
E77                       1060037000029245  2017113000000000021210003Carine Aurea Silva                                                              2
E78                       1060023000014310  2017113000000000011027003Carla Cristina Gomes                                                            2
E79                       1060037000054800  2017113000000000014559403Carla Junia Borges                                                              2
E80                       1060037000017824  2017113000000000020739303Carlinda Conceição Pinto Costa                                                  2
E81                       1060037000042365  2017113000000000013964303Carlos Alexandre Alves                                                          2
E83                       1060001000235740  2017113000000000018621503Carlos dos Santos Queiroz                                                       2
E84                       1060037000026874  2017113000000000014430003Carlos Francisco da Silva                                                       2
E85                       1060037000017840  2017113000000000016401403Carlos Roberto da Silva                                                         2
E86                       1060037000007411  2017113000000000035512403Carlos Roberto da Silva I                                                       2
E87                       1060037000007349  2017113000000000011202103Carlos Roberto dos Santos                                                       2
E88                       1060037000026904  2017113000000000014452003Carlos Roberto Gontijo                                                          2
E89                       1060037000029261  2017113000000000016057503Carlos Roberto Padilha                                                          2
E90                       1060037000065594  2017113000000000013670103Carolina Fiori Simões Oliveira                                                  2
E1101                     1060037000713111  2017113000000000019048903Carolina Morais de Araújo                                                       2
E1218                     1060037000075131  2017113000000000002013103Caroline Thais Soares Moura                                                     2
E121                      1060023000007624  2017113000000000018826703Cássia de Araújo Lino                                                           2
E91                       1060037000035105  2017113000000000018669703Cassio Leandro Soares                                                           2
E1230                     1060001000254396  2017113000000000019495303Cátia Cardoso de Araújo                                                         2
E92                       1060037000029288  2017113000000000006933203Cecília de Castro Ribeiro                                                       2
E93                       1060037000017875  2017113000000000012621903Cecília Franco Cançado                                                          2
E866                      1060013000680828  2017113000000000009504003Celane Maria dos Santos                                                         2
E1176                     1060037000056188  2017113000000000012672403Celeste Helena de Oliveira Alves                                                2
E913                      1060037000056188  2017113000000000015679003Celeste Helena de Oliveira Alves                                                2
E122                      1060037000029300  2017113000000000020488603Célia Aparecida de Freitas Morais                                               2
E123                      1060037000026920  2017113000000000010570403Célia Lúcia Apolinario de Andrade                                               2
E124                      1060037000026939  2017113000000000014166403Célia Maria da Silva                                                            2
E1189                     1060037000026947  2017113000000000007933103Célia Soares                                                                    2
E125                      1060001000013194  2017113000000000054666803Célio Luquini                                                                   2
E126                      1060037000017883  2017113000000000012807803Célio Sérgio dos Santos                                                         2
E95                       1060023000034320  2017113000000000011507903Cellyce Emanuele Duarte Pinto Costa                                             2
E96                       1060037000029326  2017113000000000030731403Celma Regina Costa Rodrigues                                                    2
E97                       1060370995983392  2017113000000000022715403Cemi Angélica da Cunha Gontijo                                                  2
E98                       1060037000029350  2017113000000000003180503Cenira de Oliveira Santos                                                       2
E915                      1060001000107750  2017113000000000015679003Cenir Aparecida da Cunha Mesquita                                               2
E100                      1060013000725813  2017113000000000015062703Charles Vinícius Campos                                                         2
E101                      1060001000136130  2017113000000000034739803Cintia Karina Maia Araújo                                                       2
E799                      1060013000761780  2017113000000000015679003Cintia Maria da Silva                                                           2
E1083                     1060001000113156  2017113000000000016759503Cintia Maxiliane Madeira                                                        2
E103                      1060037000029369  2017113000000000024272003Ciomar Maria Aparecida Alves                                                    2
E102                      1060037000029369  2017113000000000014610903Ciomar Maria Aparecida Alves                                                    2
E927                      1060023000050481  2017113000000000008593703Cirlei Vargas Rodrigues                                                         2
E104                      1060037000017921  2017113000000000009249803Cirlene Baeta da Silva Sousa                                                    2
E980                      1060013000508898  2017113000000000014332203Clarindo Jose da Silva                                                          2
E105                      1060037000017930  2017113000000000006228903Clarismone da Silva                                                             2
E933                      1060370998721839  2017113000000000015331803Claudenice Fagundes Faria Gontijo                                               2
E1245                     1060037000041245  2017113000000000023179803Cláudia Alvarenga dos Santos e Silva                                            2
E111                      1060037000041253  2017113000000000018114403Cláudia Helena Rodrigues Ferreira                                               2
E112                      1060037000031827  2017113000000000011070603Cláudia Regina de Faria Lacerda                                                 2
E106                      1060037000047170  2017113000000000009305703Cleide Joana Darc da Silva                                                      2
E107                      1060037000029377  2017113000000000018033703Cleides Maria Martins Santos                                                    2
E108                      1060001000202310  2017113000000000012517203Cleidiane Aparecida da Silva                                                    2
E109                      1060037000026998  2017113000000000007297903Cleonice Ferreira de Jesus                                                      2
E754                      1060013000726429  2017113000000000008593703Clicia Carla Gontijo                                                            2
E110                      1060013000532144  2017113000000000016282603Clovis da Conceição Silva                                                       2
E113                      1060037000017972  2017113000000000011716003Conceição Angélica Resende                                                      2
E114                      1060037000027005  2017113000000000013175403Conceição Aparecida Alves                                                       2
E1133                     1060037000027013  2017113000000000012352503Conceição Aparecida Fernandes da Silva                                          2
E115                      1060037000029393  2017113000000000019134303Conceição Fernandes dos Santos Costa                                            2
E1021                     1060001000204925  2017113000000000015679003Creusa Maria dos Santos Braga                                                   2
E116                      1060001000103924  2017113000000000023027203Crislene Aparecida Santos                                                       2
E117                      1060037000029415  2017113000000000020844503Cristiane Rodrigues Ferreira                                                    2
E118                      1060037000027048  2017113000000000016011003Cristiano Henrique Gontijo Silva                                                2
E119                      1060037000018014  2017113000000000021964903Cristiano Luiz Rodrigues                                                        2
E120                      1060037000027056  2017113000000000014646003Cristiano Vieira Wild                                                           2
E1001                     1060037000065454  2017113000000000019532203Cristina Simões da Mota                                                         2
E127                      1060037000027064  2017113000000000050584603Dagmar José Caetano                                                             2
E801                      1060037000073902  2017113000000000015679003Daiana Aparecida Lopes Gontijo                                                  2
E128                      1060001000222990  2017113000000000015963303Daiana Flávia de Oliveira                                                       2
E825                      1060023000048525  2017113000000000008904403Daiane Jessica do Couto Anapolis                                                2
E129                      1060037000029440  2017113000000000027541003Daisy Maria Pinto Assunção                                                      2
E130                      1060023000005435  2017113000000000011748903Dalva Maria de Mesquita Silva                                                   2
E131                      1060037000066345  2017113000000000015963303Daniela Alves Couto Silva                                                       2
E132                      1060037000029458  2017113000000000010985603Daniela Cardoso de Faria                                                        2
E824                      1060037000041288  2017113000000000009162703Daniela Cristiny Ferreira Pachelli                                              2
E133                      1060001000090512  2017113000000000059903203Daniela Moreira Rocha                                                           2
E1183                     1060037000713626  2017113000000000020273503Daniela Paula Gontijo                                                           2
E1227                     1060037000713626  2017113000000000013353903Daniela Paula Gontijo                                                           2
E932                      1060013000794122  2017113000000000008904403Danielle Carolina Soares                                                        2
E134                      1060037000056765  2017113000000000014493503Danielle Fernanda de Paula                                                      2
E995                      1060037000043817  2017113000000000025856303Danilo Jose Pinto                                                               2
E1254                     1060001000230721  2017113000000000015679003Darli Sabrina da Silva                                                          2
E1253                     1060001000223253  2017113000000000008783003Debora Cristina de Carvalho Couto Freitas                                       2
E747                      1060001000223253  2017113000000000015679003Debora Cristina de Carvalho Couto Freitas                                       2
E136                      1060037000029466  2017113000000000015778303Deborah Danielle Duarte da Silva                                                2
E135                      1060037000046131  2017113000000000011398803Debora Regiane Costa Werneck                                                    2
E137                      1060023000015406  2017113000000000009707903Delma Maria da Silva                                                            2
E138                      1060037000029482  2017113000000000029876403Delma Miraine da Silva Fialho                                                   2
E1212                     1060037000007870  2017113000000000014753603Deneval Aparecido Capanema                                                      2
E139                      1060037000043426  2017113000000000043317403Denis Anísio Socorro Carvalho                                                   2
E708                      1060037000044805  2017113000000000012641503Denise Aparecida da Silva Lobato                                                2
E140                      1060037000029504  2017113000000000021328203Denisse Aparecida dos Santos Sousa                                              2
E141                      1060037000029504  2017113000000000024129803Denisse Aparecida dos Santos Sousa                                              2
E142                      1060023000011559  2017113000000000014049703Derlinho Xavier da Silva Júnior                                                 2
E732                      1060037000064164  2017113000000000012717303Devola Cristina Silva Meireles                                                  2
E143                      1060013000644902  2017113000000000014986103Diego Costa da Silva                                                            2
E1252                     1060023000034451  2017113000000000010906303Dilma Maria Gontijo Tavares                                                     2
E1241                     1060023000034451  2017113000000000006340503Dilma Maria Gontijo Tavares                                                     2
E144                      1060037000018090  2017113000000000002447603Dinora da Silva                                                                 2
E1017                     1060001000111471  2017113000000000015679003Dinora da Silva                                                                 2
E989                      1060037000711534  2017113000000000033611903Dinoralva Maria Silva Gontijo                                                   2
E145                      1060037000007039  2017113000000000028382303Dirce Aparecida Gontijo Araújo                                                  2
E146                      1060037000029539  2017113000000000010541603Dirce Maria Alves Santos                                                        2
E147                      1060023000015490  2017113000000000010856803Divania Aparecida Couto Gontijo                                                 2
E148                      1060037000018103  2017113000000000010117603Divina Eliete dos Santos                                                        2
E981                      1060037000029547  2017113000000000027308803Donizetti Antônio Teixeira                                                      2
E1235                     1060037000038384  2017113000000000003370903Dorotéia Maria de Oliveira da Silva                                             2
E150                      1060037000029555  2017113000000000022294803Edelweiss de Castro Cabral                                                      2
E151                      1060037000029563  2017113000000000007662703Eder Alexandre Oliveira                                                         2
E152                      1060037000018138  2017113000000000017903603Edgar Lacerda Queiroz                                                           2
E153                      1060037000018146  2017113000000000018467703Ediane Costa Barbosa                                                            2
E154                      1060037000043833  2017113000000000004548303Edileia Rosado                                                                  2
E155                      1060037000043833  2017113000000000010633803Edileia Rosado                                                                  2
E880                      1060013000509169  2017113000000000017523403Edmar Lopes de Azevedo                                                          2
E930                      1060013000794882  2017113000000000015239903Edmar Maria Martins                                                             2
E851                      1060037000073155  2017113000000000008593703Edmee Augusta Teixeira Soares                                                   2
E156                      1060001000250420  2017113000000000010885903Edna Aparecida de Oliveira Cunha                                                2
E157                      1060037000043167  2017113000000000023700503Edna Elias Campos                                                               2
E158                      1060037000029580  2017113000000000025656403Edna Maria Cardoso da Silva                                                     2
E159                      1060037000007063  2017113000000000022529403Edna Santos Gontijo                                                             2
E160                      1060037000048479  2017113000000000028997803Eduardo de Freitas Resende                                                      2
E991                      1060037000711259  2017113000000000011500103Eduardo de Queiroz Cançado Júnior                                               2
E1093                     1060037000075158  2017113000000000011322303Eduardo Geraldo Xavier dos Santos                                               2
E162                      1060037000018170  2017113000000000019357403Eduardo Lopes Pessoa                                                            2
E1156                     1060037000711380  2017113000000000014991603Elaine Beatriz da Silva Rodrigues                                               2
E164                      1060037000711380  2017113000000000011822003Elaine Beatriz da Silva Rodrigues                                               2
E165                      1060001000124727  2017113000000000009349303Elaine Costa Santos                                                             2
E166                      1060023000002142  2017113000000000015953903Elaine Cristina Coimbra Melo                                                    2
E168                      1060023000046395  2017113000000000014677403Elaine Maria da Silva                                                           2
E169                      1060037000029601  2017113000000000018242603Elaine Rodrigues Braga da Costa                                                 2
E170                      1060037000060371  2017113000000000012038703Elena do Espirito Santo                                                         2
E922                      1060037000048436  2017113000000000008593703Elenice Conceição Batista da Silva                                              2
E171                      1060037000029610  2017113000000000006086203Elenice Lopes de Azevedo                                                        2
E893                      1060037000045275  2017113000000000015679003Eliana de Carvalho                                                              2
E172                      1060037000018243  2017113000000000030587803Eliana de Carvalho Silva                                                        2
E924                      1060023000032823  2017113000000000008593703Eliana Maria de Araújo                                                          2
E173                      1060037000029628  2017113000000000025461303Eliana Patrícia Ribeiro Freitas                                                 2
E174                      1060037000045259  2017113000000000014286903Eliane Andalecio Batista Silva                                                  2
E175                      1060013000774040  2017113000000000017599403Eliane Aparecida de Souza                                                       2
E176                      1060037000029636  2017113000000000021071003Eliane Cristina do Couto Costa                                                  2
E926                      1060023000018561  2017113000000000008593703Eliane Maria Ferreira Silva                                                     2
E1026                     1060013000516734  2017113000000000015679003Elida Cristina Ferreira                                                         2
E177                      1060037000029652  2017113000000000012053303Elida Paula de Morais Lima                                                      2
E1124                     1060023000014140  2017113000000000015679003Elioneide Cristina de Oliveira Nogueira                                         2
E860                      1060023000034575  2017113000000000009193303Elisabete Alves Garbazza de Freitas                                             2
E178                      1060037000066124  2017113000000000020744603Elisabete Cristina Werneck Santos                                               2
E179                      1060037000073872  2017113000000000007785603Elisabete Maria C dos Santos Costa                                              2
E883                      1060037000027188  2017113000000000027544503Elisangela Cássia de Oliveira                                                   2
E180                      1060037000032858  2017113000000000028517403Elisangela Kelly da Silva Souza                                                 2
E181                      1060037000032858  2017113000000000006391703Elisangela Kelly da Silva Souza                                                 2
E182                      1060001000080142  2017113000000000013333303Elisangela Soares de Souza                                                      2
E183                      1060037000029660  2017113000000000020809103Elisete Aparecida da Silva                                                      2
E184                      1060001000126657  2017113000000000017559603Elizandra Aparecida da Silva                                                    2
E185                      1060037000031835  2017113000000000021347803Elizete Aparecida Cardoso B Mesquita                                            2
E186                      1060001000104289  2017113000000000013848103Elizete Aparecida Cardoso B Mesquita                                            2
E187                      1060037000018308  2017113000000000008241003Elizete Francisca da Silva                                                      2
E797                      1060023000051267  2017113000000000014817503Elizete Grace da Silva Santos                                                   2
E188                      1060013000609023  2017113000000000020161003Elmo Antônio Rabelo Júnior                                                      2
E189                      1060037000018316  2017113000000000006510503Elva Aparecida Gontijo dos Santos                                               2
E190                      1060037000027196  2017113000000000047510703Elza Gonçalves                                                                  2
E191                      1060037000029679  2017113000000000013949603Elza Maria Batista Costa                                                        2
E863                      1060037000068364  2017113000000000009193303Elza Maria do Couto Costa                                                       2
E192                      1060037000064784  2017113000000000020751203Emilene de Cássia Faria Costa                                                   2
E819                      1060001000102308  2017113000000000015200403Ena Maria de Carvalho Camilo                                                    2
E193                      1060037000029687  2017113000000000008655103Enedina de Fátima Resende                                                       2
E875                      1060037000076073  2017113000000000009031503Eneida Lopes de Araújo de Carvalho                                              2
E194                      1060037000029695  2017113000000000022565703Eni do Rosário Cardoso Silva                                                    2
E195                      1060001000125014  2017113000000000015865703Erika de Mendonça dos Santos Silva                                              2
E1190                     1060037000027200  2017113000000000004580803Erika Virginia Martins Costa                                                    2
E196                      1060037000018359  2017113000000000010820003Eunice Aparecida de Faria                                                       2
E931                      1060023000048142  2017113000000000008447203Eunice de Fátima Botelho                                                        2
E197                      1060023000006121  2017113000000000023667703Euridice Affonso da Silva                                                       2
E198                      1060023000015449  2017113000000000010609903Eva das Dores da Silva Santos                                                   2
E199                      1060037000027218  2017113000000000021099103Everson José de Azevedo                                                         2
E200                      1060037000029725  2017113000000000016815003Everton Geraldo da Silva                                                        2
E201                      1060037000018367  2017113000000000006021503Ezio Teixeira da Costa                                                          2
E203                      1060001000105455  2017113000000000007910503Fabiana Dalila Tavares de Castro Oliveir                                        2
E202                      1060001000105455  2017113000000000029591603Fabiana Dalila Tavares de Castro Oliveir                                        2
E204                      1060037000029733  2017113000000000009699603Fabiana Geralda de Cássia Santos                                                2
E1082                     1060037000712948  2017113000000000015650303Fabiana Gontijo                                                                 2
E205                      1060037000018383  2017113000000000023531003Fabiana Lilian Borges Assunção                                                  2
E206                      1060037000027226  2017113000000000013697503Fabiano Geraldo de Oliveira                                                     2
E207                      1060037000018391  2017113000000000026522003Fabiano Sávio de Assis                                                          2
E208                      1060037000059560  2017113000000000015101003Felipe Cunha Azevedo                                                            2
E209                      1060037000036128  2017113000000000015963303Fernanda Aparecida Moreira                                                      2
E210                      1060001000105277  2017113000000000022707903Fernanda Viana Maia B e Silva                                                   2
E211                      1060037000029806  2017113000000000014035303Fernando Alves Cançado                                                          2
E1073                     1060037000056161  2017113000000000020214903Fernando Soares Luciano                                                         2
E1246                     1060013000669891  2017113000000000025231003Flávia Amanda da Silva Costa                                                    2
E1080                     1060001000100020  2017113000000000018521903Flávia Campos Cançado Lacerda                                                   2
E213                      1060037000043809  2017113000000000026012503Flávia Cristina Carvalho de Oliveira                                            2
E214                      1060001000200113  2017113000000000011200203Flávia Cristina da Silva Pereira                                                2
E928                      1060037000066248  2017113000000000015679003Flávia Silva Oliveira                                                           2
E216                      1060037000064261  2017113000000000018226603Franciane Margarida Mota                                                        2
E1060                     1060037000712778  2017113000000000012375103Franciane Silva                                                                 2
E217                      1059013000106409  2017113000000000014479003Francielle Ferreira da Cunha                                                    2
E1136                     1060037000035342  2017113000000000009199503Francisca Donizete da Silva Teodoro                                             2
E218                      1060001000081750  2017113000000000023245703Francisca Elisabete de Freitas                                                  2
E219                      1060037000007314  2017113000000000021060903Francisco Caetano Meco                                                          2
E1174                     1060023000050929  2017113000000000009193303Francisco Carlos Pereira de Lima                                                2
E220                      1060037000027269  2017113000000000037662503Francisco Rodrigues Guimaraes                                                   2
E221                      1060037000027285  2017113000000000031824203Friedrich Wilhelm Schneidereit                                                  2
E223                      1060037000027293  2017113000000000032090703Gabriela Fernandes da Silva Oliveira                                            2
E222                      1060037000043906  2017113000000000054666803Gabriel Rodrigues de Araújo                                                     2
E224                      1060001000109922  2017113000000000017038403Gean Carlos Magno da Silva Filho                                                2
E712                      1060037000039976  2017113000000000015679003Geizibel Gonçalves Guimaraes                                                    2
E225                      1060037000007071  2017113000000000021240503Genes da Silva Santos                                                           2
E226                      1060037000018537  2017113000000000009054203Geralda Erica Clemente Pinto                                                    2
E227                      1060037000031843  2017113000000000003271503Geralda Eunice de Andrade de Souza                                              2
E228                      1060037000029822  2017113000000000035887203Geralda Lúcia Cardoso Gontijo                                                   2
E229                      1060037000027358  2017113000000000023210503Geralda Majela da Silva                                                         2
E230                      1060001000126843  2017113000000000007622803Geralda Regina de Sousa                                                         2
E1168                     1060001000126843  2017113000000000015650303Geralda Regina de Sousa                                                         2
E231                      1060037000026424  2017113000000000024495703Geraldo Alceu de Faria                                                          2
E232                      1060037000018561  2017113000000000011649603Geraldo Antônio de Oliveira                                                     2
E233                      1060037000027374  2017113000000000018152003Geraldo Francisco da Silva                                                      2
E234                      1060037000006857  2017113000000000013633103Geraldo Gonçalves Pereira                                                       2
E235                      1060037000029830  2017113000000000023097403Geraldo Jorge Sobrinho                                                          2
E236                      1060037000027382  2017113000000000005903403Geraldo Magela da Costa                                                         2
E237                      1060037000027390  2017113000000000018055403Geraldo Majela da Silva                                                         2
E238                      1060037000029857  2017113000000000014251003Geraldo Majela da Silva V                                                       2
E239                      1060037000027412  2017113000000000014636403Geraldo Martins da Costa                                                        2
E240                      1060037000026432  2017113000000000032244703Geraldo Osvaldo Alves                                                           2
E713                      1060037000043116  2017113000000000013921203Gerbert Ariel Delfino                                                           2
E241                      1060037000027420  2017113000000000023692403Getúlio César de Mendonça                                                       2
E243                      1060037000027510  2017113000000000023164203Getúlio Norberto da Costa                                                       2
E714                      1060023000036012  2017113000000000012641503Gilberto José da Silva                                                          2
E1195                     1060037000018588  2017113000000000015114403Gilda Aparecida Delgado Rodrigues                                               2
E244                      1060037000029865  2017113000000000024842003Gilmara Adriana Rates                                                           2
E245                      1060037000029873  2017113000000000021932403Gisele Aparecida de Mendonça                                                    2
E768                      1060037000043655  2017113000000000009504003Gisele Aparecida Pereira Silva                                                  2
E246                      1060037000018596  2017113000000000013183103Gisele Renata de Oliveira                                                       2
E247                      1060037000029881  2017113000000000012109903Gisele Zeferina Novato                                                          2
E907                      1060037000026661  2017113000000000015679003Giselle Cristine Araújo da Costa                                                2
E248                      1060037000027544  2017113000000000011998203Giselle dos Santos Moreira                                                      2
E249                      1060037000048495  2017113000000000011838903Gisely Cristina Ramos Cardoso                                                   2
E1157                     1060023000016917  2017113000000000015363103Gislene Maria de Paiva Martins Tristao                                          2
E251                      1060037000029890  2017113000000000010406003Gislene Rodrigues Lopes                                                         2
E250                      1060037000029890  2017113000000000022775203Gislene Rodrigues Lopes                                                         2
E252                      1060037000073414  2017113000000000014788803Gislene Santos de Paula e Silva                                                 2
E253                      1060001000102952  2017113000000000006655003Glória Rodrigues da Silva                                                       2
E254                      1060013000763170  2017113000000000031400903Graciela Almeida Amaral                                                         2
E789                      1060001000202299  2017113000000000015485803Gracielha Aparecida de Souza Silva                                              2
E255                      1060037000027552  2017113000000000033101203Grazielle Guimaraes Borges Vieira                                               2
E256                      1060023000001987  2017113000000000004975203Guacyra dos Santos Jaco                                                         2
E1152                     1060023000001987  2017113000000000014788803Guacyra dos Santos Jaco                                                         2
E259                      1060037000027560  2017113000000000032495603Hamilton Magela da Costa                                                        2
E260                      1060037000060827  2017113000000000008262303Helder Domingos de Souza                                                        2
E1113                     1060037000036659  2017113000000000014597303Helena Maria Borges de Assis                                                    2
E262                      1060037000029911  2017113000000000009420303Helena Maria da Silva                                                           2
E769                      1060023000049165  2017113000000000008240303Helena Maria da Silva Campos                                                    2
E261                      1060037000057923  2017113000000000008723203Helen Sandra Barbosa Ferreira                                                   2
E264                      1060037000018650  2017113000000000020087403Heloisa Helena Andalecio                                                        2
E266                      1060037000026416  2017113000000000039937403Heloisa Helena de F e Silva                                                     2
E265                      1060037000026416  2017113000000000022690103Heloisa Helena de F e Silva                                                     2
E267                      1060037000066086  2017113000000000014641403Iara Azevedo Assis                                                              2
E1010                     1060037000030316  2017113000000000015296103Iara Cristina Soares Costa                                                      2
E269                      1060013000675174  2017113000000000033611903Icaro Moreno Silva Rocha                                                        2
E1066                     1060023000032777  2017113000000000012312603Idalina Rodrigues da Silva                                                      2
E969                      1060023000003173  2017113000000000009504003Ilza Aparecida da Silva                                                         2
E270                      1060037000061173  2017113000000000012010703Iolanda Farias Tavares Antunes                                                  2
E272                      1060037000029920  2017113000000000023334203Iolanda Maria Costa                                                             2
E792                      1060001000204135  2017113000000000009193303Ione Ferreira da Costa Couto                                                    2
E772                      1060037000075891  2017113000000000015564103Irene Alves Ferreira Silva                                                      2
E1042                     1060013000484182  2017113000000000015679003Iris Adriana Soares                                                             2
E273                      1060037000029938  2017113000000000027166603Isabela Fonseca Araújo                                                          2
E903                      1060037000043671  2017113000000000009193303Isabel Cristina de Araújo Silva                                                 2
E274                      1060013000701531  2017113000000000014593703Isabele de Fátima Madeira Vieira Xavier                                         2
E943                      1060001000130492  2017113000000000015679003Isabella Machado Cardoso Gontijo                                                2
E1137                     1060001000122910  2017113000000000011207103Isamin Fernandes do Couto                                                       2
E275                      1060037000027625  2017113000000000002197803Ismara Nunes Bento Silva                                                        2
E276                      1060001000081238  2017113000000000039257303Itamar Vicente Santos                                                           2
E278                      1060037000029962  2017113000000000019284303Ivania Maria de Lima                                                            2
E277                      1060037000027633  2017113000000000010035603Ivan Martins de Andrade                                                         2
E280                      1060037000029970  2017113000000000012815003Ivy Lilian da Silva                                                             2
E279                      1060037000029970  2017113000000000041990003Ivy Lilian da Silva                                                             2
E281                      1060037000029989  2017113000000000019456403Jacinto Luiz Apolinario                                                         2
E282                      1060037000018740  2017113000000000023560003Jaime Cláudio Silva                                                             2
E283                      1060037000006997  2017113000000000070140903Jaime Vagne dos Santos                                                          2
E284                      1060037000006962  2017113000000000010875003Jaine Rodrigues de Souza Assis                                                  2
E285                      1060001000106869  2017113000000000020250903Janaina Bernardes Estevam da Silva                                              2
E286                      1060023000049491  2017113000000000012886703Janaina Geralda de Oliveira Antunes                                             2
E287                      1060037000055092  2017113000000000017250303Jane Clarice Ferreira                                                           2
E289                      1060001000103177  2017113000000000015650303Jane Maria Nunes                                                                2
E288                      1060001000103177  2017113000000000022488603Jane Maria Nunes                                                                2
E290                      1060037000030014  2017113000000000021373803Janice Mara da Silva Ribeiro                                                    2
E291                      1060037000031673  2017113000000000015433203Janisse Socorro Dias Cançado                                                    2
E733                      1060037000711178  2017113000000000013921203Jaqueline da Costa Raposo Melo                                                  2
E849                      1060001000126452  2017113000000000009504003Jaqueline Maria Silva Santos                                                    2
E905                      1060037000057400  2017113000000000008904403Jenifer Estefane Silva                                                          2
E1233                     1060023000050104  2017113000000000026151503Jessica Eduarda Amaral                                                          2
E293                      1060037000060665  2017113000000000017395803Joana Darc Cançado Ferreira                                                     2
E294                      1060037000022690  2017113000000000008719403Joana Darc da Silva II                                                          2
E292                      1060037000030022  2017113000000000025690603Joana D Arc Sobrinho Chacon                                                     2
E328                      1060037000007012  2017113000000000013462603João Batista da Costa                                                           2
E329                      1060037000038040  2017113000000000021003403João Batista da Silva III                                                       2
E1240                     1060013000512100  2017113000000000001600703João Bosco de Araújo                                                            2
E330                      1060037000027684  2017113000000000019087303João Donizeti Ferreira                                                          2
E760                      1060001000221269  2017113000000000022531703João Ferreira do Couto Júnior                                                   2
E331                      1060037000027692  2017113000000000022078703João Francisco da Silva                                                         2
E332                      1060013000488420  2017113000000000035114003João Paulo Alves Rodrigues                                                      2
E333                      1060037000030049  2017113000000000041722403João Paulo Ferry                                                                2
E295                      1060037000027706  2017113000000000035223303Joaquim Bento Rodrigues Filho                                                   2
E296                      1060023000002592  2017113000000000022235403Joelma Meire de Mendonça Gontijo                                                2
E297                      1060013000535658  2017113000000000016516203Joelma Priscilla Bobbia Teixeira                                                2
E827                      1060023000049823  2017113000000000008923403Joesse Aparecida de Freitas                                                     2
E298                      1060037000018804  2017113000000000006473403Joesse Francisca dos Santos de Paulo                                            2
E746                      1060037000075174  2017113000000000018221603Joesse Luzia Secundino de Menezes                                               2
E299                      1060037000023301  2017113000000000043349603Joesse Maria Pinto Silva                                                        2
E300                      1060037000043132  2017113000000000013910603Jonas Clayton Sousa                                                             2
E305                      1060023000016178  2017113000000000020356703José Alves Gonçalves                                                            2
E877                      1060037000711771  2017113000000000029502503José Antônio da Silva                                                           2
E307                      1060001000130670  2017113000000000023035903José Antônio de Oliveira                                                        2
E309                      1060037000027730  2017113000000000037549903José Aroldo Beata                                                               2
E310                      1060037000022712  2017113000000000010236203José Ascanio da Silva                                                           2
E311                      1060037000030065  2017113000000000018102103José Carlos de Melo                                                             2
E312                      1060037000041199  2017113000000000036923703José Elias Lopes                                                                2
E313                      1060037000027757  2017113000000000013976903José Eustáquio da Silva                                                         2
E314                      1060037000027773  2017113000000000012434503José Eustáquio dos Santos                                                       2
E315                      2986001000022654  2017113000000000048389703José Eustáquio Matias                                                           2
E1210                     1060037000027790  2017113000000000005390103José Francisco Dias                                                             2
E317                      1060037000018839  2017113000000000010153703José Francisco Meco                                                             2
E318                      1060001000137136  2017113000000000015558003José Inácio da Silva                                                            2
E319                      1060037000035504  2017113000000000020591003José Maria Aparecido                                                            2
E320                      1060037000027811  2017113000000000024749603José Maria Gontijo                                                              2
E321                      1060037000018855  2017113000000000055097303José Maria Lopes Cesario                                                        2
E323                      1060037000030073  2017113000000000019408203José Oscar do Nascimento                                                        2
E324                      1060037000027846  2017113000000000017639003José Osmar da Silva                                                             2
E1019                     1060037000051399  2017113000000000024570803Jose Rodrigues da Silva                                                         2
E326                      1060037000018871  2017113000000000013745103José Valdemir dos Santos                                                        2
E327                      1060037000711755  2017113000000000015147903José Valdir de Sousa Júnior                                                     2
E302                      1060037000030081  2017113000000000024661703Josiane Maria da Silva Sousa                                                    2
E304                      1060037000027854  2017113000000000010805103Josias de Souza                                                                 2
E1070                     1060013000784542  2017113000000000012375103Joyce Jaciara Chaves Soares                                                     2
E342                      1060370998721969  2017113000000000024822503Júlia Maria Lopes Teixeira                                                      2
E850                      1060001000202558  2017113000000000009814703Juliana Antunes Borges                                                          2
E961                      1060037000067180  2017113000000000015679003Juliana Aparecida da Silva                                                      2
E741                      1060037000054959  2017113000000000009193303Juliana Aparecida de Carvalho                                                   2
E334                      1060037000030090  2017113000000000014928303Juliana Cristina de Mesquita                                                    2
E716                      1060023000041580  2017113000000000009177403Juliana Elisa Vidal Santos                                                      2
E335                      1060037000030103  2017113000000000020372103Juliana Lima Campos                                                             2
E788                      1060037000072680  2017113000000000014817503Juliana Lúcia dos Santos                                                        2
E336                      1060023000003351  2017113000000000011641603Juliana Maria da Silva Rodrigues                                                2
E895                      1060037000044589  2017113000000000015583303Juliana Moreira Rabelo Silva                                                    2
E963                      1060037000043728  2017113000000000015679003Juliana Queli Sousa                                                             2
E337                      1060037000043027  2017113000000000051912903Juliano Milan Toscano Barreto                                                   2
E338                      1060037000027897  2017113000000000026043703Junia Aparecida Simões Gontijo                                                  2
E339                      1060037000026440  2017113000000000047557703Jusara Aparecida Maciel da Silva                                                2
E340                      1060001000202418  2017113000000000012886703Jussara Aparecida Teixeira                                                      2
E341                      1060037000030111  2017113000000000008223703Jussara Maria de Sousa Carvalho                                                 2
E1238                     1060001000135273  2017113000000000019315103Karina Cançado Pereira Silva                                                    2
E344                      1060037000066060  2017113000000000028179003Karina de Queiroz Cançado                                                       2
E345                      1060037000041067  2017113000000000007355003Karine Fernanda de Assis Vreck                                                  2
E346                      1060037000070547  2017113000000000012311003Karine Tavila Fereira                                                           2
E347                      1060037000070512  2017113000000000013174603Karla Kethleen Sales Alvarenga                                                  2
E348                      1060001000105668  2017113000000000016397003Katia Aparecida da Silva G Melo                                                 2
E349                      1060037000043680  2017113000000000002932303Katia Aparecida dos Santos                                                      2
E1127                     1060037000039135  2017113000000000015679003Katia Cristina de Oliveira Aguiar                                               2
E350                      1060037000027900  2017113000000000009249603Katia Vanessa Alves Tiradentes                                                  2
E902                      1060037000059411  2017113000000000009504003Keila Libéria Couto                                                             2
E1138                     1060037000030120  2017113000000000010926103Kellen Aparecida Barbosa Ramos                                                  2
E1248                     1060037000073090  2017113000000000008003103Kelly Cristina Correia Azevedo                                                  2
E1166                     1060037000710295  2017113000000000015650303Kelly Stael Eleutério de Araújo Gontijo                                         2
E351                      1060037000074836  2017113000000000022894103Kenia Fabiana de Assis                                                          2
E352                      1060001000125693  2017113000000000017352403Kenia Natalicia da Silva Rodrigues Braga                                        2
E1074                     1060037000712115  2017113000000000012375103Laísa Fernanda de Oliveira Santos                                               2
E353                      1060037000074879  2017113000000000023050403Laís Aparecida da Silva                                                         2
E354                      1060037000036810  2017113000000000016414603Lais Fernanda Silva Bessas                                                      2
E1076                     1060001000124824  2017113000000000014982303Lais Padua Ribeiro                                                              2
E1069                     1060037000713006  2017113000000000016973103Larissa Araujo Silva                                                            2
E356                      1060037000064768  2017113000000000013822003Larissa Nina Mota Santos                                                        2
E357                      1060037000057559  2017113000000000022034203Larisse Jenifer Soares Gontijo                                                  2
E358                      1060037000030138  2017113000000000029271503Laudislene Geralda Marques Azevedo                                              2
E359                      1060037000042020  2017113000000000006978603Laura Alves de Matos                                                            2
E1078                     1060037000712808  2017113000000000014489803Laura Cristina Lacerda e Silva                                                  2
E360                      1060037000030146  2017113000000000014495703Laurene Campos do Espirito Santo                                                2
E1043                     1060037000030146  2017113000000000011445703Laurene Campos do Espirito Santo                                                2
E1067                     1060013000481485  2017113000000000012996503Leanderson Rever de Araújo                                                      2
E363                      1060001000134072  2017113000000000011674103Leidia Aparecida Batista Campos                                                 2
E938                      1060001000234026  2017113000000000015228603Leidy Laura da Silva                                                            2
E1139                     1060037000035563  2017113000000000008200903Leila Cristina da Silva Sousa                                                   2
E364                      1060037000027951  2017113000000000029730303Leila Gonçalves dos Santos                                                      2
E365                      1060013000435327  2017113000000000015865703Leiliane Nunes da Silva                                                         2
E366                      1060037000034605  2017113000000000022408203Lelia de Oliveira Costa                                                         2
E367                      1060037000027960  2017113000000000017926903Lenir Firmino Canto Martins                                                     2
E368                      1060037000019010  2017113000000000038191303Lenir Pereira Vidal de Souza                                                    2
E369                      1060037000069590  2017113000000000015963303Leriane Aparecida Januário                                                      2
E765                      1060037000031703  2017113000000000008904403Letícia Aparecida Monteiro Costa                                                2
E370                      1060001000223920  2017113000000000014998703Letícia Gontijo da Cunha Carneiro                                               2
E1065                     1060037000712921  2017113000000000012375103Leticia Lopes de Jesus                                                          2
E946                      1060037000041202  2017113000000000015391903Libiana de Cássia Moreira Lopes Bernardes                                       2
E372                      1060023000017573  2017113000000000002617403Lidiane Maria Soares                                                            2
E373                      1060037000019061  2017113000000000025170203Lilia Aparecida Pinto Costa                                                     2
E377                      1060037000060762  2017113000000000018291603Liliana Maria Fernandes Vieira                                                  2
E378                      1060037000060762  2017113000000000017718803Liliana Maria Fernandes Vieira                                                  2
E375                      1060001000107598  2017113000000000012952603Lilian Carla Morais                                                             2
E376                      1060001000125430  2017113000000000010299303Lilian Conceição Olimpio                                                        2
E1154                     1060001000125430  2017113000000000014456203Lilian Conceição Olimpio                                                        2
E374                      1060037000030162  2017113000000000010555803Lilian de Assis Mota Santos                                                     2
E718                      1060037000043647  2017113000000000008309603Lilian de Padua Costa                                                           2
E379                      1060037000030189  2017113000000000007533403Liliane Aparecida da Silva                                                      2
E380                      1060037000070679  2017113000000000011708403Liliane Raimundo Galdino                                                        2
E890                      1060037000073236  2017113000000000016619903Lilian Paula Marques Ribeiro                                                    2
E738                      1060037000073236  2017113000000000014817503Lilian Paula Marques Ribeiro                                                    2
E1163                     1060023000004277  2017113000000000017086103Lilian Werneck Simões                                                           2
E381                      1060037000027994  2017113000000000019075703Liomar Rogerio Luzia                                                            2
E382                      1060001000110416  2017113000000000006521503Livia Carolina de Sousa Silva                                                   2
E383                      1060037000050759  2017113000000000017903603Livia Cristina Costa                                                            2
E384                      1060001000111889  2017113000000000027563303Livia Gontijo Teixeira de Andrade                                               2
E386                      1060037000030197  2017113000000000011691903Lourdes Aparecida Guimaraes                                                     2
E387                      2257001000233406  2017113000000000052610303Luana Lopes de Noronha                                                          2
E1068                     1060037000712999  2017113000000000012375103Luana Michele Pinto                                                             2
E794                      1060023000048983  2017113000000000009193303Luana Veronica da Silva                                                         2
E388                      1060037000060487  2017113000000000012922303Lucas Aparecido Pinto                                                           2
E389                      1060037000710759  2017113000000000038680703Lucas Araújo de Azevedo                                                         2
E390                      1060037000064970  2017113000000000014922303Lucas César Oliveira Silva                                                      2
E949                      1060001000200261  2017113000000000009504003Lucelia de Fátima da Silva                                                      2
E404                      1060037000030200  2017113000000000020564403Lúcia Aparecida de Araújo                                                       2
E405                      1060037000030219  2017113000000000010616703Lúcia Helena dos Santos                                                         2
E826                      1060037000070768  2017113000000000008946403Luciana Aparecida Elpidio Silva                                                 2
E744                      1060001000124131  2017113000000000015679003Luciana Aparecida Ferreira Araújo                                               2
E391                      1060037000030227  2017113000000000012514903Luciana Aparecida Gontijo Couto                                                 2
E392                      1060013000537324  2017113000000000012944003Luciana de Cássia Gomes Campos                                                  2
E393                      1060013000493769  2017113000000000013106403Luciana de Lourdes da Silva                                                     2
E1158                     1060013000493769  2017113000000000015437203Luciana de Lourdes da Silva                                                     2
E1102                     2257001000080642  2017113000000000015679003Luciana Lacerda Miranda                                                         2
E394                      1060037000030243  2017113000000000025709803Luciano Antônio Borges                                                          2
E1089                     1060013000523560  2017113000000000009698403Luciene Aparecida da Silva                                                      2
E396                      1060037000069611  2017113000000000013754903Luciene das Chagas                                                              2
E784                      1060037000046000  2017113000000000008593703Lucilene Aparecida Marques da Silva                                             2
E1084                     1060001000205964  2017113000000000016942503Lucimara Aparecida Santos                                                       2
E398                      1060001000205964  2017113000000000015784003Lucimara Aparecida Santos                                                       2
E397                      1060037000072477  2017113000000000020461903Lucimar Aparecida S Santos                                                      2
E740                      1060037000044996  2017113000000000006898103Lucimar de Fátima Borges Silva                                                  2
E399                      1060037000030260  2017113000000000002847803Ludeia Vieira Santos                                                            2
E720                      1060037000057982  2017113000000000013921203Ludimila Karen Magalhães da Silva                                               2
E1250                     1060037000067058  2017113000000000004657403Ludmila Libéria Moreira Lopes                                                   2
E402                      1060037000019223  2017113000000000013161703Luisana Oliveira Xavier Teixeira                                                2
E401                      1060037000019223  2017113000000000017427203Luisana Oliveira Xavier Teixeira                                                2
E400                      1060013000523579  2017113000000000022477403Luis Cláudio Soares da Silva                                                    2
E828                      1060037000059586  2017113000000000009504003Luiza Tobias dos Santos Ferreira                                                2
E403                      1060037000019231  2017113000000000019483003Luiz Carlos Baia                                                                2
E869                      1060037000711488  2017113000000000015679003Lurdes Márcia da Silva                                                          2
E1140                     1060037000035580  2017113000000000017026903Madalena Aparecida Marques Silva                                                2
E406                      1060001000201357  2017113000000000020363703Maique Aparecido Alves                                                          2
E407                      1060037000019282  2017113000000000010872703Manoela Alves de Oliveira                                                       2
E408                      1060037000072388  2017113000000000013643003Mara Aparecida de Faria Gomes                                                   2
E409                      1060037000019304  2017113000000000015531103Mara Vieira do Nascimento Campos                                                2
E410                      1060037000074410  2017113000000000005778903Marcelo Cassiano Soares                                                         2
E411                      1060037000028044  2017113000000000037281703Marcelo de Freitas Resende                                                      2
E412                      1060037000019320  2017113000000000035766903Marcelo Ferry Couto                                                             2
E413                      1060037000064130  2017113000000000020532703Marcelo Pereira Silva                                                           2
E862                      1060013000646646  2017113000000000015679003Marcelo Teixeira                                                                2
E858                      1060013000646646  2017113000000000016051203Marcelo Teixeira                                                                2
E498                      1060037000030286  2017113000000000005928103Márcia Alves de Matos Ferreira                                                  2
E773                      1060037000711208  2017113000000000009814703Márcia Aparecida de Sousa                                                       2
E952                      1060037000064563  2017113000000000015679003Márcia Aparecida dos Santos                                                     2
E821                      1060023000034915  2017113000000000008619803Márcia Aparecida Mota Chagas                                                    2
E499                      1060037000028052  2017113000000000004615803Márcia Aparecida Vidal Costa                                                    2
E500                      1060037000030294  2017113000000000025447903Márcia Borges Oliveira                                                          2
E502                      1060037000043892  2017113000000000025474203Márcia Regina dos Santos                                                        2
E503                      1060037000030340  2017113000000000013900203Márcia Rodrigues da Costa Alves                                                 2
E1018                     1060001000251010  2017113000000000018221603Márcio Amaral Mendes                                                            2
E414                      1060037000041229  2017113000000000030789003Marcio Pereira de Melo                                                          2
E415                      1060037000019355  2017113000000000057056703Marco Antônio de Souza                                                          2
E416                      1060013000615066  2017113000000000016201503Marco Aurelio da Silva Oliveira                                                 2
E418                      1060013000508090  2017113000000000014318603Marcos Antônio da Silva                                                         2
E419                      1060037000028168  2017113000000000007323903Marcos Antônio de Freitas                                                       2
E420                      1060023000014809  2017113000000000006246703Marcos Antônio Inácio Rodrigues                                                 2
E417                      1060037000059691  2017113000000000022034203Marco Túlio Sousa Freitas                                                       2
E421                      1060013000474195  2017113000000000012456903Maria Alice Gontijo                                                             2
E783                      1060037000057001  2017113000000000008959803Maria Alinéia Gomes                                                             2
E422                      1060037000030367  2017113000000000020752503Maria Angela Alves Mendonça                                                     2
E722                      1060037000073252  2017113000000000012641503Maria Angela Antônia Valentim                                                   2
E424                      1060037000030383  2017113000000000010933803Maria Aparecida Alves de Souza                                                  2
E423                      1060037000030375  2017113000000000020902803Maria Aparecida Alves dos Santos                                                2
E425                      1060037000062153  2017113000000000015963303Maria Aparecida Campos Silva                                                    2
E426                      1060037000030391  2017113000000000038849803Maria Aparecida da C Reboucas                                                   2
E427                      1060037000019398  2017113000000000043872003Maria Aparecida da Silva Carvalho                                               2
E428                      1060037000030413  2017113000000000022054603Maria Aparecida da Silva Morato                                                 2
E429                      1060037000030413  2017113000000000021940703Maria Aparecida da Silva Morato                                                 2
E1231                     1060001000112389  2017113000000000015679003Maria Aparecida da Silva Tavares                                                2
E430                      1060037000031924  2017113000000000020571903Maria Aparecida de Faria Silva                                                  2
E1209                     1060013000770711  2017113000000000001532303Maria Aparecida de Sousa Souto                                                  2
E1088                     1060037000030421  2017113000000000011680003Maria Aparecida dos Santos Silva                                                2
E431                      1060037000713383  2017113000000000026553203Maria Aparecida dos S Mesquita                                                  2
E899                      1060013000494188  2017113000000000009193303Maria Aparecida Elias da Silva                                                  2
E757                      1060001000123453  2017113000000000009504003Maria Aparecida Lopes Silva                                                     2
E944                      1060037000052999  2017113000000000014721803Maria Aparecida Oliveira Duarte                                                 2
E433                      1060037000033927  2017113000000000016877503Maria Aparecida Rangel Rodrigues                                                2
E898                      1060001000126827  2017113000000000008593703Maria Aparecida Silva Santos                                                    2
E435                      1060037000019436  2017113000000000019790803Maria Auxiliadora Teodoro Nunes da Silva                                        2
E888                      1060001000202515  2017113000000000008593703Maria Célia de Sousa Gontijo                                                    2
E436                      1060023000003424  2017113000000000016341503Maria Cristina dos Santos de Faria                                              2
E437                      1060037000030464  2017113000000000010136803Maria da Conceição Aparecida Sil Campos                                         2
E438                      1060037000030480  2017113000000000009638403Maria da Conceição Couto                                                        2
E1143                     1060037000035644  2017113000000000008142103Maria da Paz da Silva                                                           2
E441                      1060037000030502  2017113000000000023179803Maria das Gracas Auxiliadora de Araújo                                          2
E979                      1060001000102375  2017113000000000018226603Maria das Graças Epifânio da Silva                                              2
E444                      1060037000030529  2017113000000000014258603Maria das Gracas Lopes da Silva                                                 2
E443                      1060037000030529  2017113000000000012323003Maria das Gracas Lopes da Silva                                                 2
E445                      1060037000030537  2017113000000000015933703Maria das Gracas Silva de Azevedo                                               2
E446                      1060037000019487  2017113000000000012886703Maria das Vitorias da Silva Freitas                                             2
E804                      1060001000126878  2017113000000000015679003Maria de Fátima Apolinario Gomes                                                2
E447                      1060001000123550  2017113000000000017292303Maria de Fátima de Araújo                                                       2
E723                      1060037000056030  2017113000000000012641503Maria de Fátima Filiais                                                         2
E448                      1060013000088180  2017113000000000054666803Maria de Fátima Rodrigues                                                       2
E449                      1060037000019509  2017113000000000025701803Maria de Lourdes Azevedo Fernandes                                              2
E450                      1060037000030553  2017113000000000010329603Maria de Lourdes Santos Xavier                                                  2
E1217                     1060023000049319  2017113000000000009193303Maria Dirce Alves da Silva                                                      2
E1141                     1060037000035652  2017113000000000016220703Maria do Carmo Cardoso Silva                                                    2
E452                      1060001000235200  2017113000000000032647003Maria Donisete da Silva                                                         2
E453                      1060037000030561  2017113000000000012696003Maria Eunice Costa Faria                                                        2
E455                      1060037000030588  2017113000000000016742003Maria Helena Aparecida Campos                                                   2
E454                      1060037000030588  2017113000000000025525103Maria Helena Aparecida Campos                                                   2
E456                      1060037000030596  2017113000000000012374403Maria Helena da Silva                                                           2
E457                      1060037000030600  2017113000000000022707903Maria Helena de Faria Couto                                                     2
E458                      1060037000030618  2017113000000000027393603Maria Helena Dias Costa                                                         2
E459                      1060037000028230  2017113000000000017462103Maria Helena Simões                                                             2
E1242                     1060023000033560  2017113000000000012870703Maria Imaculada Moreira                                                         2
E1160                     1060013000536450  2017113000000000015847703Maria Iracema Antunes Soares                                                    2
E460                      1060013000536450  2017113000000000003021903Maria Iracema Antunes Soares                                                    2
E461                      1060037000030626  2017113000000000007887703Maria Isabel Wanderlei Teixeira                                                 2
E462                      1060037000019568  2017113000000000013694103Maria Ivanete Firmino Xavier                                                    2
E463                      1060001000202019  2017113000000000001781503Maria José Alvarenga Alves                                                      2
E464                      1060037000019576  2017113000000000008463603Maria José da Silva Lopes                                                       2
E465                      1060037000030642  2017113000000000038245303Maria José Salgado de Oliveira                                                  2
E466                      1060037000030650  2017113000000000023024103Maria José Teixeira Gontijo                                                     2
E992                      1060037000711542  2017113000000000020161003Maria Klésia de Oliveira                                                        2
E467                      1060001000106931  2017113000000000015963303Maria Lelia da Silva Schneidereit                                               2
E468                      1060001000081190  2017113000000000021516003Maria Luiza Franco Cançado Teixeira                                             2
E469                      1060001000081190  2017113000000000013370303Maria Luiza Franco Cançado Teixeira                                             2
E1203                     1060037000063958  2017113000000000015679003Mariana Amanda Dias Monteiro Moreira                                            2
E478                      1060037000065721  2017113000000000014603103Mariana César Diniz da Cunha                                                    2
E1185                     1060037000714096  2017113000000000012125203Mariana de Faria e Silva                                                        2
E479                      1060037000055122  2017113000000000015327303Mariany Nayara de Souza Chaves                                                  2
E941                      1060023000000255  2017113000000000015679003Maria Onesimo da Silva                                                          2
E471                      1060037000019592  2017113000000000029340003Maria Orlanda Ferreira Rezende                                                  2
E472                      1060037000030693  2017113000000000019439103Maria Perpetua da Silva                                                         2
E473                      1060037000006334  2017113000000000017749703Maria Raimunda Gontijo                                                          2
E1191                     1060023000016089  2017113000000000016948103Maria Raquel de Araújo Rezende                                                  2
E475                      1060001000080720  2017113000000000024238603Maria Regina de Assis Rodrigues                                                 2
E802                      1060013000773630  2017113000000000015679003Maria Rosilene Marcal Oliveira                                                  2
E476                      1060037000030715  2017113000000000013219403Maria Salete de Medeiros Cardoso                                                2
E477                      1060037000030731  2017113000000000030731403Maria Sirley da Silva Machado                                                   2
E1144                     1060037000028281  2017113000000000018043303Marilene Alves Azevedo                                                          2
E480                      1060013000428010  2017113000000000021529003Marilene Rodrigues Silva                                                        2
E487                      1060037000030766  2017113000000000010796003Marília Aparecida Cesario Assunção                                              2
E488                      1060037000019630  2017113000000000014661703Marília Aparecida Gonçalves da Silva                                            2
E886                      1060013000749500  2017113000000000008715203Marília Cabral dos Santos                                                       2
